:100000000C9434000C943E000C943E000C943E0082
:100010000C943E000C943E000C943E000C943E0068
:100020000C943E000C943E000C943E000C943E0058
:100030000C943E000C943E000C943E000C943E0048
:100040000C943E000C943E000C943E000C943E0038
:100050000C943E000C943E000C943E000C943E0028
:100060000C943E000C943E0011241FBECFEFD8E04C
:10007000DEBFCDBF0E9417010C9425010C94000037
:10008000259A239A229A2A9A2D9A08959C016150C2
:10009000770B41E050E06F3F760709F408952D9803
:1000A000CA01062E02C0880F991F0A94E2F7822324
:1000B0009323892B29F02B9A2D9A61507109EBCF4C
:1000C0002B98FACFCF93C82F2A9863E084E090E072
:1000D0000E94460068E08C2F90E00E94460061E09C
:1000E00090E080E00E9446002A9ACF910895CF9335
:1000F000DF93D82FC62F2A9863E085E090E00E9416
:10010000460067E08D2F90E00E94460064E08C2F4F
:1001100090E00E9446002A9ADF91CF9108950E94B4
:1001200040008FE39CE90197F1F700C0000081E0F7
:100130000E94620080E20E94620083E00E946200EE
:1001400088E00E9462008FEB0C946200EF92FF92B5
:100150000F931F93CF93C82F693008F068E041E0F8
:1001600050E002C0440F551F6A95E2F74150510913
:1001700030E020E010E000E070E060E081E090E03E
:10018000A3E0B0E0FC01022E02C0EE0FFF1F0A94B4
:10019000E2F7E423F523EF2B61F0FD01E21BF30B03
:1001A0007C0102C0EE0CFF1CEA95E2F7F7016E2914
:1001B0007F2BF90134967C0102C0EE0CFF1CEA95FE
:1001C000E2F7F701E423F523EF2B61F0FD01E21BD9
:1001D000F30B7C0102C0EE0CFF1CEA95E2F7F7017D
:1001E0000E291F2B2F5F3F4F2430310559F68C2FDE
:1001F0000E947700602F81E08C0FCF911F910F91AB
:10020000FF90EF900C9477001092C50087E08093E8
:10021000C40088E18093C10086E08093C200089505
:100220008091C00087FFFCCF8091C60008950E9496
:100230008F000E9404010E941001C82F0E9410012B
:0E024000682F8C2F0E94A600F6CFF894FFCFF7
:00000001FF
