:100000000C9434000C943E000C943E000C943E0082
:100010000C943E000C943E000C943E000C943E0068
:100020000C943E000C943E000C943E000C943E0058
:100030000C943E000C943E000C943E000C943E0048
:100040000C943E000C943E000C943E000C943E0038
:100050000C943E000C943E000C943E000C943E0028
:100060000C943E000C943E0011241FBECFEFD8E04C
:10007000DEBFCDBF0E94C8000C94E0000C940000CD
:10008000259A239A229A2A9A2D9A08959C016150C2
:10009000770B41E050E06F3F760709F408952D9803
:1000A000CA01062E02C0880F991F0A94E2F7822324
:1000B0009323892B29F02B9A2D9A61507109EBCF4C
:1000C0002B98FACFCF93C82F2A9863E084E090E072
:1000D0000E94460068E08C2F90E00E94460061E09C
:1000E00090E080E00E9446002A9ACF910895CF9335
:1000F000DF93D82FC62F2A9863E085E090E00E9416
:10010000460067E08D2F90E00E94460064E08C2F4F
:1001100090E00E9446002A9ADF91CF9108950E94B4
:1001200040008FE39CE90197F1F700C0000081E0F7
:100130000E94620080E20E94620083E00E946200EE
:1001400088E00E9462008FEB0C9462001F93CF93B3
:10015000DF93182F693008F068E0C1E0D0E002C0FA
:10016000CC0FDD1F6A95E2F72197110F6C2F6F708E
:10017000812F0E947700BE0184E0769567958A956D
:10018000E1F781E0810FDF91CF911F910C9477000F
:100190000E948F00C0E061E08C2F0E94A6002FEF2C
:1001A00083ED90E3215080409040E1F700C00000D3
:1001B00060E08C2F0E94A600CE5FC03261F7FFCFB7
:0401C000F894FFCFE1
:00000001FF
